:10FC0000112424B614BE80E068D021FEF9C182E040
:10FC10008093C0001092C40088E18093C10086E008
:10FC20008093C2008EE059D046D0C82F8D7FF1F46A
:10FC30004AD0D82FA0E0B2E03ED08D93DA13FCCFAB
:10FC400047D0C1110FC0A0E0B2E0F999FECF1FBAB2
:10FC5000F2BDE1BD8D9180BDFA9AF99A3196DA1321
:10FC6000F4CF1FC0A0E0B2E041D01BC0C33041F4CC
:10FC70002AD0C82F2DD0859117D0C150E1F711C0DF
:10FC8000C13071F420D0C82F23D0F999FECFF2BD36
:10FC9000E1BDF89A80B508D03196C150B1F701C0E6
:10FCA00017D08FE701D0C0CF9091C00095FFFCCF57
:10FCB0008093C60008958091C00087FFFCCFA8956F
:10FCC0008091C6000895F7DFE82FF5DFF82FF3CF16
:10FCD000F2DF8032F9F780E2E7CF98E1A8959093C0
:10FCE0006000809360000895FB01DC016A2F9F0192
:10FCF000FC3F90F483E00BD081E00D901D9007D085
:10FD00003296A613FACFF90185E001D081E187BFD1
:0CFD1000E89507B600FCFDCF1124089513
:06FFFA00040075CEE33E99
:040000030000FC00FD
:00000001FF
