:1006400011248FED8DBF24B614BE80E0A6D021FE0C
:10065000E8C082E08BB989B988E18AB986E083B9BC
:100660008DE09BD08FD0813451F48CD0C82F81E0A5
:1006700099D0C23811F087E013C086E011C08234EF
:1006800011F485E176C0853411F486E072C08537B7
:1006900049F481E087D08EE170D081E96ED08AE0A4
:1006A0006CD068C08635C1F46DD0D82F6BD0C82F00
:1006B00069D068D081E076D0DC3A11F08FEFF0CFCE
:1006C000C038E1F7E0E0F0E0C2E383E08CD0A89529
:1006D000B096C150D1F7F2CF853539F453D0E82F19
:1006E00051D0F82FEE0FFF1F43C0843621F549D0BB
:1006F000C82F48D0F82EDC2F00E610E043D0D801F8
:100700008D938D01D150D1F781E04CD0B6E4FB162A
:1007100071F0A0E6B0E0E199FECF1CBAEEBB8D917E
:100720008DBBE29AE19A3196C150A9F723C0A0E6A9
:10073000B0E047D01FC08437B9F423D0C82F22D0EF
:10074000D82F81E02FD0D63451F0E199FECFEEBB07
:10075000E09A8DB312D03196C150B9F70BC0859194
:100760000CD0C150E1F706C0813511F488E015D0F6
:1007700081E018D080E101D075CF5D9BFECF8CB9B0
:10078000089500D0002CCC2C8BB187FFFDCF84FDC9
:1007900010C0A8958CB1112C089598E1A89591BD31
:1007A00081BD0895CF93C82FEDDFC150E9F78032A6
:1007B00019F088E0F2DFFFCF84E1CF91DECFFB01BB
:1007C000DC0160E26A0F9F01E03486E0F80780F404
:1007D00083E009D081E00D901D9005D03296A613DC
:1007E000FACFF90185E087BFE89507B600FCFDCF99
:0407F0001124089533
:0607FA000E11E0CFC73E26
:0400000300000640B3
:00000001FF
