:1006E00011248FED8DBF24B614BE80E060D021FEB2
:1006F00098C08BE389B988E18AB986E083B98DE037
:1007000056D045D0C82F8D7F09F547D0D82F182F48
:1007100080E6E82EF12C3BD0D7018D937D0111505E
:10072000D1F740D0C1110EC0A0E6B0E0E199FECFF4
:100730001CBAEEBB8D918DBBE29AE19A3196D150F5
:10074000A9F71EC0A0E6B0E039D01AC0C33041F40A
:1007500024D0C82F27D0859116D0C150E1F710C002
:10076000C13069F41AD0C82F1DD0E199FECFEEBB7D
:10077000E09A8DB308D03196C150B9F701C012D0BC
:100780008CE201D0BECF5D9BFECF8CB908958BB1BA
:1007900087FFFDCFA8958CB10895F9DFE82FF7DF2B
:1007A000F82FF5CFF4DF8032F9F780E2ECCF98E153
:1007B000A89591BD81BD0895FB01DC0160E26A0F3F
:1007C0009F01E03E86E0F80780F483E009D081E0F5
:1007D0000D901D9005D03296A613FACFF90185E051
:0E07E00087BFE89507B600FCFDCF11240895F1
:0607FA000911DDCFE73E0E
:04000003000006E013
:00000001FF
