:103EE00011248FEF94E09EBF8DBF25B615BE80E0F4
:103EF0005FD021FEB9C087E481BD88E185BD86E041
:103F000084BD8DE055D044D0C82F8D7FF1F446D0CC
:103F1000D82FA0E0B1E03CD08D93DA13FCCF43D092
:103F2000C1110FC0A0E0B1E0E199FECF1CBAFFBB08
:103F3000EEBB8D918DBBE29AE19A3196DA13F4CF04
:103F40001FC0A0E0B1E03BD01BC0C33041F426D07D
:103F5000C82F29D0859117D0C150E1F711C0C130C9
:103F600071F41CD0C82F1FD0E199FECFFFBBEEBB70
:103F7000E09A8DB308D03196C150B1F701C013D08B
:103F800089E201D0C0CF06B405FEFDCF80BD089503
:103F900086B587FFFDCFA89580B50895F9DFE82F96
:103FA000F7DFF82FF5CFF4DF8032F9F780E2EBCFBF
:103FB00098EDA8959FBD80BF0895FB01DC0160E2EC
:103FC0006A0F9F01E03E8EE3F80780F483E009D09A
:103FD00081E00D901D9005D03296A613FACFF9011D
:103FE00085E087BFE89507B600FCFDCF1124089552
:063FFA00091ADECFE73ECC
:0400000300003EE0DB
:00000001FF
