:101F000011248FE592E09EBF8DBF24B614BE80E001
:101F100042D021FE85C082E08BB98CE089B988E18E
:101F20008AB986E880BD8EE036D025D0823071F443
:101F300028D0C0E6D0E010E6180F1DD089931C13FE
:101F4000FCCF24D0A0E6B0E02DD00EC0833041F409
:101F500018D0C82F1BD085910AD0C150E1F704C01A
:101F6000823008F4FFCF12D081EA01D0DECF5D9B32
:101F7000FECF8CB908958BB187FFFDCFA8958CB1AA
:101F80000895F9DFE82FF7DFF82FF5CFF4DF80327F
:101F9000F9F780E2ECCF98E1A89591BD81BD089555
:101FA000FB01DC0160E46A0F9F01FF3190F483E0E4
:101FB0000BD081E00D901D9007D03296A613FACF7A
:101FC000F90185E001D081E187BFE89507B600FC03
:061FD000FDCF112408956D
:061FFA000410D1CFA73E48
:0400000300001F00DA
:00000001FF
