:107E000011248FEF98E09EBF8DBF24B614BE80E092
:107E100069D021FEF5C081E18093C40088E18093A0
:107E2000C10086E08093C2008EE05CD049D0C82FAC
:107E30008D7FE9F452D0D82FA0E0B1E041D08D93EE
:107E4000DA13FCCF56D0C1110EC0A0E0B1E0F99911
:107E5000FECFF2BDE1BD8D9180BDFA9AF99A3196BF
:107E6000DA13F5CF23C0A0E0B1E04DD01FC0C3307E
:107E700041F433D0C82F3DD085911BD0C150E1F7DC
:107E800015C0C13071F429D0C82F33D0F999FECF75
:107E9000F2BDE1BDF89A80B50CD03196C150B1F772
:107EA00005C0C13511F488E01DD023D084E901D08C
:107EB000BDCF9091C00095FFFCCF8093C600089580
:107EC000002CCC2C8091C00087FFFCCF84FD14C017
:107ED000A8958091C600112C0895F2DFE82FF0DFFD
:107EE000F82FEECF98E1A895909360008093600002
:107EF0000895E6DF803219F088E0F4DFFFCF80E2FA
:107F0000D8CFFB01DC0160E86A0F9F01FE3790F4D7
:107F100083E00BD081E00D901D9007D03296A61320
:107F2000FACFF90185E001D081E187BFE89507B676
:087F300000FCFDCF11240895AF
:067FFA00040082CFE33E0B
:0400000300007E007B
:00000001FF
