:10FC0000112424B614BE80E04AD021FEF9C183E05D
:10FC10008093C40088E18093C10086E08093C20095
:10FC20008DE03DD027D0823069F42FD0382FA0E06E
:10FC3000B1E020D08D933A13FCCF2CD0A0E0B1E0FE
:10FC400037D00EC0833041F420D0C82F23D0859107
:10FC50000AD0C150E1F704C0823008F4FFCF1AD0B7
:10FC600082E801D0DFCF9091C00095FFFCCF809358
:10FC7000C6000895002CCC2C8091C00087FFFCCFDB
:10FC8000A8958091C600112C0895F4DFE82FF2DFCB
:10FC9000F82FF0CFEFDF8032F9F780E2E4CF98E180
:10FCA000A89590936000809360000895FB01DC01AB
:10FCB0006A2F9F01FC3F90F483E00BD081E00D9010
:10FCC0001D9007D03296A613FACFF90185E001D036
:10FCD00081E187BFE89507B600FCFDCF11240895A8
:06FFFA00040057CEA33EF7
:040000030000FC00FD
:00000001FF
