:100E8000112424B614BE80E091D021FED2C010926D
:100E9000C40088E18093C10086E08093C2008DE0A9
:100EA00085D072D0813421F482E076D087E011C001
:100EB000823411F485E15CC0853411F486E058C0B9
:100EC000853749F481E068D08EE156D082E954D06C
:100ED00085E052D04EC0863521F485E05DD08FEF9D
:100EE000F8CF853539F450D0E82F4ED0F82FEE0FDB
:100EF000FF1F3DC0843609F546D0182F45D0082F76
:100F0000C0E0D1E041D089931C13FCCF81E044D0F4
:100F1000063479F0A0E0B1E0F999FECF1FBAF2BD36
:100F2000E1BD8D9180BDFA9AF99A31961A13F4CFEA
:100F300020C0A0E0B1E043D01CC08437C1F423D06E
:100F4000C82F22D0D82F81E027D0D63459F0F99974
:100F5000FECFF2BDE1BDF89A80B50ED03196C150FA
:100F6000B1F707C0859108D0C150E1F702C081E018
:100F700013D080E101D095CF9091C00095FFFCCFB8
:100F80008093C600089500D08091C00087FFFCCFF9
:100F9000A8958091C6000895CF93C82FF5DFC15062
:100FA000E9F78032F9F784E1CF91E6CF98E1A8958F
:100FB00090936000809360000895FB01DC0160E481
:100FC0006A0F9F01E0388EE0F80780F483E009D0D3
:100FD00081E00D901D9005D03296A613FACFF9014D
:100FE00085E087BFE89507B600FCFDCF1124089582
:060FFA000619DECFC73E20
:0400000300000E806B
:00000001FF
