:020000021000EC
:10FE000011248FEF90E19EBF8DBF24B614BE80E019
:10FE10007FD021FE3DC182E08093C0008CE08093C2
:10FE2000C40088E18093C10086E08093C2008DE029
:10FE30006FD059D0813421F482E060D087E011C0C6
:10FE4000823411F485E143C0853411F486E03FC06B
:10FE5000853749F481E052D08EE13DD087E93BD02F
:10FE600081E839D035C0863521F485E047D08FEF61
:10FE7000F8CF853551F437D0E82F35D0F82FEE0F75
:10FE8000FF1F8827881F8BBF21C0843689F42AD0A2
:10FE9000182F29D08634F9F7C0E0D1E024D0899317
:10FEA0001C13FCCF81E02AD0A0E0B1E03BD010C011
:10FEB000843761F417D0C82F16D08634F9F781E063
:10FEC0001DD0879108D0C150E1F702C081E016D063
:10FED00080E101D0AECF9091C00095FFFCCF809320
:10FEE000C600089500D0002CCC2C8091C00087FF64
:10FEF000FCCFA8958091C600112C0895CF93C82FF0
:10FF0000F2DFC150E9F78032F9F784E1CF91E3CF16
:10FF100098E1A895909360008093600008956BBF6E
:10FF2000FA01DC016A2F9F01FE3F9BB781E0980731
:10FF300090F483E00BD081E00D901D9007D03296B5
:10FF4000A613FACFF90185E001D081E187BFE895DA
:0AFF500007B600FCFDCF1124089550
:06FFFA00022490CF873EB7
:040000031000FE00EB
:00000001FF
