:101E000011248FE594E09EBF8DBF24B614BE80E000
:101E100083D021FEF5C0899A8EE07ED062D08134D5
:101E200019F482E06FD010C0823411F485E141C012
:101E3000853411F486E03DC0853749F481E062D0F5
:101E40008EE13BD083E939D087E037D033C0863587
:101E500021F485E057D08FEFF8CF853539F441D0A4
:101E6000E82F3FD0F82FEE0FFF1F22C0843691F4E9
:101E700037D0182F36D08634F9F7C0E6D0E0105AA4
:101E800030D089931C13FCCF81E03CD0A0E6B0E0B9
:101E90004AD010C0843761F423D0C82F22D08634B2
:101EA000F9F781E02FD0859108D0C150E1F702C049
:101EB00081E028D080E101D0B1CF2AE0809508945C
:101EC00010F4919802C0919A000004D086952A954A
:101ED000B9F7089500D097E09A95F1F700C00895FA
:101EE00000D0002CCC2C29E08099FECFF4DFF2DF6B
:101EF0008894809908942A9511F08795F8CFA89531
:101F0000112C0895CF93C82FECDFC150E9F7803230
:101F1000F9F784E1CF91D1CF98E1A89591BD81BD2A
:101F20000895FB01DC0160E46A0F9F01FE3190F42B
:101F300083E00BD081E00D901D9007D03296A61360
:101F4000FACFF90185E001D081E187BFE89507B6B6
:081F500000FCFDCF11240895EF
:061FFA00080092CF833EB7
:0400000300001E00DB
:00000001FF
