:1018000011248FEF92E09EBF8DBF24B614BE80E0FE
:101810009ED021FEF5C3219A8DE099D07DD08134F0
:1018200021F482E08AD087E011C0823411F485E18E
:101830005CC0853411F486E058C0853749F481E0F6
:101840007CD08EE156D083E954D081E652D04EC090
:10185000863521F485E071D08FEFF8CF853539F4E6
:101860005BD0E82F59D0F82FEE0FFF1F3DC0843614
:1018700009F551D0182F50D0082FC0E0D1E04CD03E
:1018800089931C13FCCF81E058D0063479F0A0E096
:10189000B1E0F999FECF1FBAF2BDE1BD8D9180BDD7
:1018A000FA9AF99A31961A13F4CF20C0A0E0B1E069
:1018B00057D01CC08437C1F42ED0C82F2DD0D82FBC
:1018C00081E03BD0D63459F0F999FECFF2BDE1BDAD
:1018D000F89A80B50ED03196C150B1F707C0859106
:1018E00008D0C150E1F702C081E027D080E101D0EB
:1018F00095CF2AE08095089410F4299802C0299A7F
:10190000000004D086952A95B9F7089500D09AEA88
:101910009A95F1F7089500D0002CCC2C29E0189965
:10192000FECFF5DFF3DF8894189908942A9511F01B
:101930008795F8CFA895112C0895CF93C82FECDF89
:10194000C150E9F78032F9F784E1CF91D2CF98E125
:10195000A89590936000809360000895FB01DC01DE
:1019600060E46A0F9F01F83190F483E00BD081E0CE
:101970000D901D9007D03296A613FACFF90185E09D
:1019800001D081E187BFE89507B600FCFDCF1124A7
:021990000895B8
:061FFA002000AFCCC33E45
:0400000300001800E1
:00000001FF
