:103E000011248FE594E09EBF8DBF24B614BE80E0E0
:103E10006DD021FEF5C087E489B988E18AB98EE0CA
:103E200065D054D0813421F482E056D087E011C0AF
:103E3000823411F485E141C0853411F486E03DC03F
:103E4000853749F481E048D08EE13BD084E939D010
:103E500082E037D033C0863521F485E03DD08FEF46
:103E6000F8CF853539F432D0E82F30D0F82FEE0F67
:103E7000FF1F22C0843691F428D0182F27D0863413
:103E8000F9F7C0E6D0E0105A21D089931C13FCCF7B
:103E900081E022D0A0E6B0E030D010C0843761F4D9
:103EA00014D0C82F13D08634F9F781E015D085914E
:103EB00008D0C150E1F702C081E00ED080E101D00E
:103EC000B0CF5D9BFECF8CB9089500D08BB187FF3A
:103ED000FDCFA8958CB10895CF93C82FF7DFC150BF
:103EE000E9F78032F9F784E1CF91EBCF98E1A8951B
:103EF00091BD81BD0895FB01DC0160E86A0F9F015F
:103F0000FE3390F483E009D081E00D901D9005D040
:103F10003296A613FACFF90185E087BFE895FFFF37
:0C3F2000000007B600FCFDCF112408953E
:063FFA0004007CCF833EB1
:0400000300003E00BB
:00000001FF
