:103E0000112424B614BE80E078D021FEF9C08EE0E3
:103E100074D0E0ECF0E0B2E0B483B2E0B083B8E19B
:103E2000B183B6E0B28357D0C82F823559F46CD035
:103E3000E0E0FEE3E058F109A89583E081D03097F7
:103E4000C9F73FC08D7FF1F453D0D82FA0E0B1E087
:103E500042D08D93DA13FCCF57D0C1110FC0A0E030
:103E6000B1E0F999FECF1FBAF2BDE1BD8D9180BDE1
:103E7000FA9AF99A3196DA13F4CF23C0A0E0B1E0B0
:103E80004DD01FC0C33041F433D0C82F3DD08591F1
:103E90001BD0C150E1F715C0C13071F429D0C82F33
:103EA00033D0F999FECFF2BDE1BDF89A80B50CD0C0
:103EB0003196C150B1F705C0C13511F488E01DD06D
:103EC00023D084E601D0AFCF9091C00095FFFCCF06
:103ED0008093C6000895002CCC2C8091C00087FFF1
:103EE000FCCF84FD14C0A8958091C600112C0895C4
:103EF000F2DFE82FF0DFF82FEECF98E1A89590934E
:103F00006000809360000895E6DF803219F088E059
:103F1000F4DFFFCF80EAD8CFFB01DC0160E86A0F55
:103F20009F01FE3390F483E00BD081E00D901D9053
:103F300007D03296A613FACFF90185E001D081E1CE
:0E3F400087BFE89507B600FCFDCF1124089559
:063FFA0004008DCF613FC1
:0400000300003E00BB
:00000001FF
