:10FC0000112424B614BE80E0AED021FEF9C18EE0EE
:10FC1000AAD0699A95D0813429F492D081E0AAD0F3
:10FC200087E011C0823411F485E173C0853411F48A
:10FC300086E06FC0853749F481E09CD08EE16DD0BD
:10FC400086E96BD088E069D065C08635B9F478D094
:10FC5000D82F76D0C82F74D073D081E08BD0DC3A07
:10FC600011F08FEFF0CFC038E1F7E0E0FCEFFA954C
:10FC7000A89583E09FD03097D1F7F3CF853539F43D
:10FC80005FD0E82F5DD0F82FEE0FFF1F41C0843604
:10FC900009F555D0182F54D0082FC0E0D2E050D02D
:10FCA00089931C13FCCF81E065D0063479F0A0E085
:10FCB000B2E0F999FECF1FBAF2BDE1BD8D9180BDD2
:10FCC000FA9AF99A31961A13F4CF24C0A0E0B2E060
:10FCD00060D020C08437C1F432D0C82F31D0D82FA3
:10FCE00081E048D0D63459F0F999FECFF2BDE1BD9C
:10FCF000F89A80B512D03196C150B1F70BC08591FA
:10FD00000CD0C150E1F706C0813511F488E02BD04A
:10FD100081E030D080E101D07DCF2AE08095089449
:10FD200010F4719802C0719A000004D086952A954B
:10FD3000B9F7089500D097E09A95F1F7089500D0AB
:10FD4000002CCC2C29E06099FECFF5DFF3DF8894FE
:10FD5000609908942A9511F08795F8CF08F011C0A2
:10FD6000A895112C089598E1A89590936000809330
:10FD700060000895CF93C82FE3DFC150E9F78032C8
:10FD800019F088E0F0DFFFCF84E1CF91C6CFFB010F
:10FD9000DC016A2F9F01FC3F90F483E00BD081E0EF
:10FDA0000D901D9007D03296A613FACFF90185E089
:10FDB00001D081E187BFE89507B600FCFDCF112493
:02FDC0000895A4
:06FFFA000400C8CE413FE7
:040000030000FC00FD
:00000001FF
