:101F000011248FEF92E09EBF8DBF24B614BE80E0F7
:101F100054D021FE83C0D59A8DE04FD033D082308B
:101F200069F441D0382FA0E0B1E02CD08D933A1362
:101F3000FCCF3ED0A0E0B1E048D00EC0833041F4E9
:101F400032D0C82F35D085910AD0C150E1F704C0F6
:101F5000823008F4FFCF2CD086E201D0DFCF2AE018
:101F60008095089410F4DD9802C0DD9A000004D03A
:101F700086952A95B9F7089500D097E09A95F1F7DC
:101F800000C00895002CCC2C29E0CC99FECFF5DFC1
:101F9000F3DF8894CC9908942A9511F08795F8CFAF
:101FA000A895112C0895EEDFE82FECDFF82FEACF8B
:101FB000E9DF8032F9F780E2D2CF98EDA8959093CF
:101FC000710081BD0895FB01DC0160E16A0F9F0192
:101FD000FF3180F483E009D081E00D901D9005D0A1
:101FE0003296A613FACFF90185E087BFE89507B6C8
:081FF00000FCFDCF112408954F
:061FFA00100EE4CFA73E2B
:0400000300001F00DA
:00000001FF
