:101F000011248FEF92E09EBF8DBF24B614BE80E0F7
:101F100051D021FE83C0D59A8DE04CD033D0823091
:101F200069F43ED0382FA0E0B1E02CD08D933A1365
:101F3000FCCF3BD0A0E0B1E045D00EC0833041F4EF
:101F40002FD0C82F32D085910AD0C150E1F704C0FC
:101F5000823008F4FFCF29D086E201D0DFCF2AE01B
:101F60008095089410F4DD9802C0DD9A000004D03A
:101F700086952A95B9F7089500D097E09A95F1F7DC
:101F800000C0089529E0CC99FECFF7DFF5DF8894F3
:101F9000CC9908942A9511F08795F8CFA8950895C3
:101FA000F1DFE82FEFDFF82FEDCFECDF8032F9F72C
:101FB00080E2D5CF98EDA8959093710081BD0895EA
:101FC000FB01DC0160E16A0F9F01FF3180F483E0D7
:101FD00009D081E00D901D9005D03296A613FACF5E
:101FE000F90185E087BFE89507B600FCFDCF112415
:021FF000089552
:061FFA00100EE1CFA73E2E
:0400000300001F00DA
:00000001FF
