:101E8000112424B614BE80E082D021FED2C08EE0A0
:101E90007ED0519A64D0C82F823561F47FD0E0E0C3
:101EA000F0E0CAE783E09FD0A895E05CFF4FC15007
:101EB000C9F73FC08D7FF1F465D0D82FA0E0B1E025
:101EC0004ED08D93DA13FCCF69D0C1110FC0A0E0C2
:101ED000B1E0F999FECF1FBAF2BDE1BD8D9180BD91
:101EE000FA9AF99A3196DA13F4CF23C0A0E0B1E060
:101EF0005FD01FC0C33041F445D0C82F4FD085916B
:101F00001BD0C150E1F715C0C13071F43BD0C82FD0
:101F100045D0F999FECFF2BDE1BDF89A80B50CD05D
:101F20003196C150B1F705C0C13511F488E02FD00A
:101F300035D082E501D0AECF2AE08095089410F428
:101F4000599802C0599A000004D086952A95B9F78D
:101F5000089500D097E09A95F1F700C00895002CFD
:101F6000CC2C29E04899FECFF5DFF3DF889448991F
:101F700008942A9511F08795F8CF08F012C0A8951B
:101F8000112C0895ECDFE82FEADFF82FE8CF98E175
:101F9000A89590936000809360000895E0DF803200
:101FA00019F088E0F4DFFFCF80EAC6CFFB01DC0147
:101FB00060E46A0F9F01E0388EE1F807C8F483E01F
:101FC00012D0309629F48FE38D938FEC8C93119778
:101FD00081E00D901D9007D03296A613FACFF9013B
:101FE00085E001D081E187BFE89507B600FCFDCF11
:041FF000112408951B
:061FFA000619D7CF673F76
:0400000300001E805B
:00000001FF
