:107C00001124C4B714BE80E0F1D0C1FD41C0C3FF50
:107C10003EC085E185B98DE284B980E58CBDE0E0A8
:107C2000F0E0C8EF289883E0C6D080E0C4D08F2F62
:107C3000C2D08E2FC0D000E011E080E0BCD0D801CF
:107C40008D938D010038B1E01B07B9F7289A309762
:107C500039F480910101843919F0807F803CA1F4CE
:107C6000DCD0E058FF4FC150E9F6289886E0A3D059
:107C7000289A289804E080E29ED080E00150E1F745
:107C8000289A8EE0B3D0FFCF1CBC14B815B8B8C189
:107C900083E28093C40088E18093C10086E08093F2
:107CA000C2008EE0A3D095D0813451F492D0C82F79
:107CB00081E0A3D0C23811F087E013C086E011C084
:107CC000823411F485E173C0853411F486E06FC00D
:107CD000853749F481E091D08EE173D085E971D088
:107CE0008FE06FD065C08635C9F473D0D82F71D0BE
:107CF000C82F6FD06ED081E080D0DC3A11F08FEFCA
:107D0000F0CFC038E1F7E0E0F0E0C8EF83E099D0D1
:107D1000A895E058FF4FC150C9F7F1CF853539F428
:107D200058D0E82F56D0F82FEE0FFF1F3FC08436F3
:107D3000F9F44ED0182F4DD0082FC0E0D1E049D033
:107D400089931C13FCCF81E058D0063479F0A0E071
:107D5000B1E0F999FECF1FBAF2BDE1BD8D9180BDB2
:107D6000FA9AF99A31961A13F4CF22C056D020C04D
:107D70008437C1F42DD0C82F2CD0D82F81E03DD02E
:107D8000D63459F0F999FECFF2BDE1BDF89A80B52D
:107D900018D03196C150B1F70BC0859112D0C150A7
:107DA000E1F706C0813511F488E020D081E025D0CC
:107DB00080E107D078CF8EBD0DB407FEFDCF8EB524
:107DC00008959091C00095FFFCCF8093C600089560
:107DD00000D02998219A8091C00087FFFCCF84FDB4
:107DE00013C0A8958091C600299A089598E1A89596
:107DF00090936000809360000895CF93C82FE9DFCF
:107E0000C150E9F7803219F088E0F0DFFFCF84E15C
:107E1000CF91D7CFFB01DC0102C0A0E0B1E060E868
:107E20006A0F9F01FC3790F483E00BD081E00D9046
:107E30001D9007D03296A613FACFF90185E001D044
:107E400081E187BFE89507B600FCFDCF11240895B6
:067FFA0008000BCFD33E8E
:0400000300007C007D
:00000001FF
