:103E000011248FEF94E09EBF8DBF24B614BE80E0D6
:103E10008BD021FEF5C019B888E18AB986E880BD4B
:103E20008EE082D06ED0813421F482E073D087E0BE
:103E300011C0823411F485E15BC0853411F486E051
:103E400057C0853749F481E065D08EE155D084E9CB
:103E500053D084E051D04DC0863521F485E05AD04E
:103E60008FEFF8CF853539F44CD0E82F4AD0F82FB2
:103E7000EE0FFF1F3CC0843601F542D0182F41D011
:103E8000082FC0E0D1E03DD089931C13FCCF81E026
:103E900041D0063471F0A0E0B1E0E199FECFFFBB64
:103EA000EEBB8D918DBBE29AE19A31961A13F5CF54
:103EB00020C0A0E0B1E03FD01CC08437C1F420D0C6
:103EC000C82F1FD0D82F81E025D0D63459F0E199E2
:103ED000FECFFFBBEEBBE09A8DB30ED03196C15042
:103EE000B1F707C0859108D0C150E1F702C081E069
:103EF00011D080E101D096CF5D9BFECF8CB90895A3
:103F000000D0002CCC2C8BB187FFFDCFA8958CB1B5
:103F1000112C0895CF93C82FF4DFC150E9F78032F8
:103F2000F9F784E1CF91E8CF98E1A89591BD81BDE3
:103F30000895FB01DC0160E86A0F9F01FE3390F4F5
:103F400083E00BD081E00D901D9007D03296A61330
:103F5000FACFF90185E001D081E187BFE89507B686
:083F600000FCFDCF11240895BF
:063FFA0004009ACFC33E53
:0400000300003E00BB
:00000001FF
