:107C00001124C4B714BE80E0F9D0C1FD45C0C3FF44
:107C100042C084E185B98CE284B9552C772C80E58B
:107C20008CBDE0E0F0E0C8EF662C83E0BAD080E0E5
:107C3000B8D08F2FB6D08E2FB4D000E011E080E006
:107C4000B0D0D8018D938D010038B1E01B07B9F792
:107C5000552C309739F480910101843919F0807FD7
:107C6000803CA1F4E2D0E058FF4FC150E9F6662C09
:107C700086E097D0552C662C04E080E292D080E01C
:107C80000150E1F7552C8EE0B9D0FFCF1CBC14B8E1
:107C900015B8992C882CB4C18EE0B0D0519A9BD0E5
:107CA000813429F498D081E0B0D087E011C08234CB
:107CB00011F485E172C0853411F486E06EC0853719
:107CC00049F481E0A2D08EE172D085E970D08FE0D6
:107CD0006ED064C08635C1F47ED0D82F7CD0C82F3A
:107CE0007AD079D081E091D0DC3A11F08FEFF0CFEB
:107CF000C038E1F7E0E0FCE7E058F109A89583E03F
:107D0000A8D03097C9F7F2CF853539F464D0E82F81
:107D100062D0F82FEE0FFF1F3FC08436F9F45AD01F
:107D2000182F59D0082FC0E0D1E055D089931C13EB
:107D3000FCCF81E06AD0063479F0A0E0B1E0F99997
:107D4000FECF1FBAF2BDE1BD8D9180BDFA9AF99ABE
:107D500031961A13F4CF22C068D020C08437C1F402
:107D600039D0C82F38D0D82F81E04FD0D63459F031
:107D7000F999FECFF2BDE1BDF89A80B518D03196E1
:107D8000C150B1F70BC0859112D0C150E1F706C0C8
:107D9000813511F488E032D081E037D080E107D01E
:107DA0007ECF8EBD0DB407FEFDCF8EB508952AE0BF
:107DB0008095089410F4599802C0599A000004D094
:107DC00086952A95B9F7089500D097E09A95F1F72E
:107DD00000C0089500D0002CCC2C29E04899FECF9B
:107DE000F4DFF2DF8894489908942A9511F087957A
:107DF000F8CF08F011C0A895112C089598E1A89526
:107E000090936000809360000895CF93C82FE3DFC4
:107E1000C150E9F7803219F088E0F0DFFFCF84E14C
:107E2000CF91C5CFFB01DC0102C0A0E0B1E060E86A
:107E30006A0F9F01FC3790F483E00BD081E00D9036
:107E40001D9007D03296A613FACFF90185E001D034
:107E500081E187BFE89507B600FCFDCF11240895A6
:067FFA00080013CF513F07
:0400000300007C007D
:00000001FF
